:020000040800F2
:10000000701200208D01000895010008970100087A
:10001000990100089B0100089D01000800000000F4
:100020000000000000000000000000009F01000828
:10003000A101000800000000A3010008A5010008BC
:10004000A7010008A7010008A7010008A7010008F0
:10005000A7010008A7010008A70100089D050008E6
:10006000A7010008A7010008A7010008A7010008D0
:1000700049020008A7010008A7010008A70100081D
:10008000A7010008A7010008A7010008A7010008B0
:10009000A7010008A7010008A7010008A7010008A0
:1000A000A7010008A7010008A7010008A701000890
:1000B000A7010008A7010008A7010008A701000880
:1000C000A7010008A7010008A7010008A701000870
:1000D000A7010008A7010008A7010008A701000860
:1000E00049050008A7010008A701000800F002F870
:1000F00000F03AF80AA090E8000C82448344AAF188
:100100000107DA4501D100F02FF8AFF2090EBAE885
:100110000F0013F0010F18BFFB1A43F0010318473B
:100120002C2900004C290000103A24BF78C878C15F
:10013000FAD8520724BF30C830C144BF04680C60ED
:10014000704700000023002400250026103A28BF35
:1001500078C1FBD8520728BF30C148BF0B60704739
:100160001FB51FBD10B510BD00F033F81146FFF7E5
:10017000F7FF02F08FFA00F051F803B4FFF7F2FF37
:1001800003BC00F059F8000040BA704709488047A6
:1001900009480047FEE7FEE7FEE7FEE7FEE7FEE769
:1001A000FEE7FEE7FEE7FEE704480549054A064B81
:1001B00070470000591E0008ED000008700C002078
:1001C00070120020700E0020700E002070477047E3
:1001D0007047754600F02CF8AE4605006946534658
:1001E00020F00700854618B020B5FFF7DDFFBDE819
:1001F00020404FF000064FF000074FF000084FF08E
:10020000000B21F00701AC46ACE8C009ACE8C0091E
:10021000ACE8C009ACE8C0098D46704710B504468B
:10022000AFF300802046BDE81040FFF7A6BF0000F6
:10023000004870470C0C002001491820ABBEFEE7B7
:1002400026000200704700002DE9F041202000F058
:10025000F9F880B319490888411C184A11800446EE
:10026000002002F07DF9802C21DAA025C4F17F0066
:1002700087B204F0070000EB8000114901EB801603
:100280003B469F223946002001F054FD05E036F838
:100290001500FFF779FF26F81500281EA5F10101CA
:1002A0008DB2F4D1A021304601F026FD00BF202000
:1002B00000F008F800BFBDE8F08100000A0000204F
:1002C0002C00002000F0805111B10349086001E0CA
:1002D00002494860704700000404024000000240E8
:1002E00021B1026842F00102026004E002684FF6A8
:1002F000FE731A400260704701684FF6FE721140AB
:1003000001600021016041608160C1604B49884209
:1003100008D14A490839496841F00F01474A083A6B
:1003200051608AE045491431884208D1434908396F
:10033000496841F0F001414A083A51607DE03F4987
:100340002831884208D13D490839496841F4706133
:100350003A4A083A516070E038493C31884208D145
:1003600036490839496841F47041344A083A5160C5
:1003700063E032495031884208D130490839496830
:1003800041F470212D4A083A516056E02B496431FE
:10039000884208D129490839496841F47001274A3F
:1003A000083A516049E025497831884208D123490B
:1003B0000839496841F07061204A083A51603CE0D0
:1003C0001F49884206D1011F096841F00F01021F31
:1003D000116032E01A491431884208D11849091FC6
:1003E000096841F0F001164A121F116025E0144916
:1003F0002831884208D11249091F096841F4706107
:100400000F4A121F116018E00D493C31884208D193
:100410000B49091F096841F47041094A121F116014
:100420000BE007495031884207D10549091F096887
:1004300041F47021024A121F116070470800024007
:100440000804024001460020002201F0805313B14D
:10045000054B1A6801E0054B1A6802EA01030BB16B
:10046000012000E00020704700040240000002402C
:100470001AB103680B43036002E003688B43036017
:10048000704710B50022026847F6F0739A430C6A71
:100490008B6823430C6923434C6923438C692343B2
:1004A000CC6923434C6A23438C6A23431A4302607A
:1004B000CB6843600B6883604B68C36010BD00006D
:1004C00040F6C4114143064A116004E0044909683A
:1004D000491E034A1160024909680029F6D1704794
:1004E0000C00002017490860096821B1012903D0D8
:1004F00002290CD101E000BF704712490968491E6A
:10050000104A116011460968491E1160F4E70D494F
:100510000968C91E0B4A1160114609684900126832
:1005200001EB5201074A116000BF00BF04E005491A
:100530000968491E034A1160024909680029F6D179
:1005400000BFD9E70C00002010B54FF4804000F048
:1005500045F8D0B10D4CA18A206900F085FA80B928
:10056000A18BA06900F080FA28B10020084908603A
:100570000849088005E00120054908600020064977
:1005800008804FF4804000F023F810BD2C0A0020B2
:1005900004000020080000200A00002010B50220FE
:1005A00000F01CF878B10848006848B10748018895
:1005B000002001F0F3FF05480088401C0349088033
:1005C000022000F005F810BD040000200800002003
:1005D00001490860704700001404014001460020F2
:1005E000034A12680A400AB1012000E00020704767
:1005F00014040140002123498279002A3AD00A4696
:10060000126803689A430B461A600A1D1268036851
:100610009A430B1D1A60027911440A6803681A4351
:100620000A60184A0832126803689A43154B083367
:100630001A601A1D126803689A43124B0C331A6031
:100640004279102A0ED11A1F126803681A430D4B03
:1006500008331A601A1D126803681A43094B0C33D9
:100660001A600DE00749427911440A6803681A4389
:100670000A6005E0027911440A6803689A430A6037
:1006800070470000000401402DE9FF5F80460C46E2
:1006900093467448804504D14FF006094FF4807AA0
:1006A00034E07148804504D14FF005094FF0800ACD
:1006B0002CE06E48804504D14FF004094FF0400A09
:1006C00024E06B48804504D14FF003094FF0200A25
:1006D0001CE06848804504D14FF002094FF0100A31
:1006E00014E06548804504D14FF001094FF0080A35
:1006F0000CE06248804504D14FF000094FF0040A35
:1007000004E04FF0FF3004B0BDE8F09FB4F5004FB7
:1007100004D14FF400460F2528276AE0B4F5804F36
:1007200004D14FF480460E25282762E0B4F5005F1F
:1007300004D14FF400560D2528275AE0B4F5805F08
:1007400004D14FF480560C25282752E0B4F5006FF1
:1007500004D14FF400660B2528274AE0B4F5806FDA
:1007600004D14FF480660A25282742E0B4F5007FC3
:1007700004D14FF40076092517273AE0B4F5807FBD
:1007800004D14FF480760825172732E0802C03D15E
:100790008026072517272CE0402C03D1402606256C
:1007A000172726E0202C03D120260525172720E037
:1007B000102C03D1102604250A271AE0082C03D197
:1007C00008260325092714E0042C03D1042602255A
:1007D00008270EE0022C03D102260125072708E096
:1007E000012C03D101260025062702E04FF0FF303F
:1007F00089E70121504601F001F80121084600F087
:10080000FDFFADF80C4028208DF80F0003208DF877
:100810000E0003A9404600F053F82946484600F070
:100820002FF8019600208DF808008DF809B00120FE
:100830008DF80A0001A8FFF7DDFE4FF4E06000F03C
:10084000F1F9F8B28DF8000003208DF802000020C5
:100850008DF8010001208DF80300684600F0AAF928
:10086000002050E700200140001C0140001801401A
:100870000014014000100140000C0140000801403C
:1008800030B500228B071C0F0F2303FA04F20B4B29
:100890008C1053F824309343084C8D1044F82530C5
:1008A00023468C1053F824308C07240F00FA04F4EC
:1008B0002343024C8D1044F8253030BD0800014020
:1008C0002DE9F041024600250026002000230024E7
:1008D000002791F803C00CF00F0591F803C00CF04D
:1008E000100CBCF1000F03D091F802C04CEA0505D2
:1008F00091F800C0BCF1000F31D0146800202BE04B
:100900004FF0010C0CFA00F3B1F800C00CEA03063A
:100910009E4220D183004FF00F0C0CFA03F7BC432A
:1009200005FA03FC4CEA040491F803C0BCF1280F5B
:1009300006D14FF0010C0CFA00FCC2F814C00AE01A
:1009400091F803C0BCF1480F05D14FF0010C0CFA2F
:1009500000FCC2F810C0401C0828D1D31460B1F8C4
:1009600000C0BCF1FF0F34DD546800202EE000F120
:10097000080C4FF0010808FA0CF3B1F800C00CEABB
:1009800003069E4221D183004FF00F0C0CFA03F7AF
:10099000BC4305FA03FC4CEA040491F803C0BCF123
:1009A000280F05D100F1080C08FA0CF8C2F81480E1
:1009B00091F803C0BCF1480F07D100F1080C4FF0CB
:1009C000010808FA0CF8C2F81080401C0828CED3A1
:1009D0005460BDE8F0810000F0B50A460023002411
:1009E0000021002500F00046B6F1004F02D11D4E57
:1009F000F16901E01B4E7168C0F3034583B200F456
:100A00004016B6F5401F08D121F07061154E76688A
:100A100026F07066134F7E6012E000F48016B6F583
:100A2000801F06D1032606FA05F4A14341F0706148
:100A300006E0460D360103FA06F6B14341F0706157
:100A400022B1460D360103FA06F6314300F00046A6
:100A5000B6F1004F02D1034EF16101E0014E716029
:100A6000F0BD0000000001400246002093680B40EA
:100A70000BB1012000E00020704741617047016127
:100A800070474FF6FF710180022181700421C1700F
:100A900070470AB1016100E04161704701B582B061
:100AA0004FF480710A48FFF7E8FF80210848FFF7FC
:100AB000E6FF0220012302AA00210090054801F070
:100AC0004BFF4FF480710248FFF7D9FF0EBD0000C5
:100AD000000C01400038004001B582B04FF4807135
:100AE0000A48FFF7CAFF80210848FFF7C6FF022027
:100AF000012302AA00210090054801F02DFF4FF4C8
:100B000080710248FFF7BBFF0EBD0000000C0140E2
:100B10000038004001B582B04FF480710A48FFF7F9
:100B2000ACFF80210848FFF7AAFF0220012302AA98
:100B300000210090054801F047FF4FF48071024802
:100B4000FFF79DFF0EBD0000000C01400038004083
:100B500038B5044615480088A04202D10020009014
:100B600010E0124804808020009007E0BDF80000EB
:100B7000401E80B200900E4921F81040BDF80000E0
:100B80000028F3D18023A0220021084601F0D2F8EA
:100B900003E08021064801F0AFF8BDF80000411CD9
:100BA00089B20091A028F4DB38BD000014000020B9
:100BB0000A0B002070B5002100230F22C47804B373
:100BC000154C246804F4E064C4F5E064210AC1F122
:100BD0000403CA40447804FA03F1847814402143A2
:100BE00009010E4C0678A155047804F01F05012474
:100BF000AC4005786D11AD0005F1E025C5F8004168
:100C000009E0047804F01F050124AC40044D067887
:100C1000761145F8264070BD0CED00E000E400E0E0
:100C200080E100E002490143024A11607047000080
:100C30000000FA050CED00E038B504460121224819
:100C4000FFF7CAFE02208DF8020010208DF8030085
:100C5000A088ADF8000069462068FFF731FEA18842
:100C60002068FFF70CFFA089ADF800006946A06876
:100C7000FFF726FEA189A068FFF7FFFE03208DF88D
:100C8000020004208DF80300A08AADF80000694638
:100C90002069FFF715FEA08BADF800006946A0693A
:100CA000FFF70EFEA08CADF800006946206AFFF742
:100CB00007FE28208DF80300FF20ADF800006946EC
:100CC000206CFFF7FDFD38BD0002300070B5054611
:100CD000002462492869884202D144F0040428E0D3
:100CE0005F492869884202D144F0080421E05D4947
:100CF0002869884202D144F010041AE05A49286950
:100D0000884202D144F0200413E0584928698842FF
:100D100002D144F040040CE055492869884202D1D0
:100D200044F0800405E053492869884201D144F425
:100D300080744A49A869884202D144F0040428E03A
:100D40004749A869884202D144F0080421E0454996
:100D5000A869884202D144F010041AE04249A86907
:100D6000884202D144F0200413E04049A869884237
:100D700002D144F040040CE03D49A869884202D108
:100D800044F0800405E03B49A869884201D144F45D
:100D900080743249286A884202D144F0040428E071
:100DA0002F49286A884202D144F0080421E02D49E5
:100DB000286A884202D144F010041AE02A49286ABD
:100DC000884202D144F0200413E02849286A88426E
:100DD00002D144F040040CE02549286A884202D13F
:100DE00044F0800405E02349286A884201D144F494
:100DF00080741A49286C884202D144F0040428E027
:100E00001749286C884202D144F0080421E01549B2
:100E1000286C884202D144F010041AE01249286C70
:100E2000884202D144F0200413E01049286C884223
:100E300002D144F040040CE00D49286C884202D1F4
:100E400044F0800405E00B49286C884201D144F449
:100E500080740121204600F0D1FC70BD00080140E3
:100E6000000C014000100140001401400018014036
:100E7000001C01400020014010B5044680221221D0
:100E8000204600F026F8012801D0002010BD642083
:100E9000FFF716FB204600F028F80120F6E710B512
:100EA00088B00446208EADF80800E06A0190A06B7F
:100EB0000690A08FADF81C00606B40000490606B42
:100EC00003900120ADF81400684600F099FB08B0CB
:100ED00010BD70B506460C4615462B4622464221EB
:100EE00006F1440000F09AFC70BD2DE9F041044683
:100EF00034F8507F2088A188503C084485B25220A5
:100F0000065B015B5620005B08444FF6FF7101EA67
:100F10004008402211212046FFF7DBFF04223A213E
:100F20002046FFF7D6FFC2223D212046FFF7D1FF22
:100F3000142212212046FFF7CCFFD0224021204668
:100F4000FFF7C7FF17221E212046FFF7C2FFC5F398
:100F5000C70217212046FFF7BCFFC7F3C7021821BD
:100F60002046FFF7B6FF07F00700802141EAC000E6
:100F700005F0070140EA010232212046FFF7A9FFF0
:100F8000C6F3470219212046FFF7A3FFC8F38702E3
:100F90001A212046FFF79DFF08F00300002141EAD7
:100FA0008000032101EA460140EA010203212046B4
:100FB000FFF78FFF00220C212046FFF78AFF002257
:100FC0003E212046FFF785FF3A2270212046FFF799
:100FD00080FF352271212046FFF77BFF112272210D
:100FE0002046FFF776FFF02273212046FFF771FFBE
:100FF000002255212046FFF76CFF80225621204613
:10100000FFF767FF0222A2212046FFF762FF20229E
:101010007A212046FFF75DFF10227B212046FFF753
:1010200058FF1E227C212046FFF753FF35227D21E9
:101030002046FFF74EFF5A227E212046FFF749FF48
:1010400069227F212046FFF744FF76228021204637
:10105000FFF73FFF802281212046FFF73AFF8822D9
:1010600082212046FFF735FF8F2283212046FFF79C
:1010700030FF962284212046FFF72BFFA3228521F3
:101080002046FFF726FFAF2286212046FFF721FFEB
:10109000C42287212046FFF71CFFD7228821204643
:1010A000FFF717FFE82289212046FFF712FFEF2202
:1010B00013212046FFF70DFF002211462046FFF7BF
:1010C00008FF002207212046FFF703FF002210211E
:1010D0002046FFF7FEFE002204212046FFF7F9FE1E
:1010E00000220D212046FFF7F4FE40224221204637
:1010F000FFF7EFFE182214212046FFF7EAFE082230
:10110000A5212046FFF7E5FE0822AB212046FFF788
:10111000E0FE752224212046FFF7DBFE6322252115
:101120002046FFF7D6FED42226212046FFF7D1FE27
:1011300078229F212046FFF7CCFE6822A02120467E
:10114000FFF7C7FE0322A1212046FFF7C2FED822E7
:10115000A6212046FFF7BDFED822A7212046FFF793
:10116000B8FEF022A8212046FFF7B3FE9022A92165
:101170002046FFF7AEFE1422AA212046FFF7A9FE63
:10118000E52213212046FFF7A4FE61220E2120460E
:10119000FFF79FFE4B220F212046FFF79AFE022207
:1011A00016212046FFF795FE022221212046FFF757
:1011B00090FE912222212046FFF78BFE0722292153
:1011C0002046FFF786FE0B2233212046FFF781FEE3
:1011D0000B2235212046FFF77CFE1D2237212046B9
:1011E000FFF777FE712238212046FFF772FE2A2290
:1011F00039212046FFF76DFE78223C212046FFF77B
:1012000068FE40224D212046FFF763FE20224E213A
:101210002046FFF75EFE002269212046FFF759FEB7
:101220000A226B212046FFF754FE1022742120462B
:10123000FFF74FFE4F228D212046FFF74AFE002286
:101240008E212046FFF745FE00228F212046FFF722
:1012500040FE002290212046FFF73BFE0022912114
:101260002046FFF736FE192292212046FFF731FE75
:10127000002296212046FFF72CFE80229A2120464C
:10128000FFF727FE8422B0212046FFF722FE0C2222
:10129000B1212046FFF71DFE0E22B2212046FFF7A6
:1012A00018FE8222B3212046FFF713FE0A22B8213E
:1012B0002046FFF70EFE0A2243212046FFF709FED3
:1012C000F02244212046FFF704FE34224521204627
:1012D000FFF7FFFD582246212046FFF7FAFD28229E
:1012E00047212046FFF7F5FD3A2248212046FFF727
:1012F000F0FD882259212046FFF7EBFD88225A2174
:101300002046FFF7E6FD44225B212046FFF7E1FD82
:1013100067225C212046FFF7DCFD49225D21204643
:10132000FFF7D7FD0E225E212046FFF7D2FD0422F3
:1013300064212046FFF7CDFD202265212046FFF7DE
:10134000C8FD052266212046FFF7C3FD0422942133
:101350002046FFF7BEFD082295212046FFF7B9FD84
:101360000A226C212046FFF7B4FD55226D2120464C
:10137000FFF7AFFD11226E212046FFF7AAFD9F2245
:101380006F212046FFF7A5FD40226A212046FFF786
:10139000A0FD402201212046FFF79BFD40220221B3
:1013A0002046FFF796FDE72213212046FFF791FD27
:1013B00086224F212046FFF78CFD862250212046B1
:1013C000FFF787FD002251212046FFF782FD2322EF
:1013D00052212046FFF77DFD622253212046FFF770
:1013E00078FD862254212046FFF773FD9E22582166
:1013F0002046FFF76EFD082241212046FFF769FDD8
:101400001F223F212046FFF764FD10227521204650
:10141000FFF75FFDC02276212046FFF75AFDFF222D
:101420004C212046FFF755FD012277212046FFF78A
:1014300050FDC2223D212046FFF74BFD09224B21E2
:101440002046FFF746FDF022C9212046FFF741FD67
:101450003A2241212046FFF73CFD1122342120464B
:10146000FFF737FD0A223B212046FFF732FD882295
:10147000A4212046FFF72DFD002296212046FFF7EC
:1014800028FD302297212046FFF723FD20229821B6
:101490002046FFF71EFD302299212046FFF719FD57
:1014A00084229A212046FFF714FD29229B21204601
:1014B000FFF70FFD03229C212046FFF70AFD4B2278
:1014C0009D212046FFF705FD3F229E212046FFF784
:1014D00000FD042278212046FFF7FBFC0122792140
:1014E0002046FFF7F6FCF022C8212046FFF7F1FC6A
:1014F0000F2279212046FFF7ECFC0022C82120466C
:10150000FFF7E7FC102279212046FFF7E2FC7E225C
:10151000C8212046FFF7DDFC0A2279212046FFF78B
:10152000D8FC8022C8212046FFF7D3FC0B2279216A
:101530002046FFF7CEFC0122C8212046FFF7C9FC58
:101540000C2279212046FFF7C4FC0F22C821204637
:10155000FFF7BFFC0D2279212046FFF7BAFC2022BD
:10156000C8212046FFF7B5FC092279212046FFF764
:10157000B0FC8022C8212046FFF7ABFC0222792173
:101580002046FFF7A6FCC022C8212046FFF7A1FC99
:10159000032279212046FFF79CFC4022C8212046E7
:1015A000FFF797FC052279212046FFF792FC3022B5
:1015B000C8212046FFF78DFC262279212046FFF71F
:1015C00088FC00222D212046FFF783FC00222E21DB
:1015D0002046FFF77EFCBDE8F08110B504462046AA
:1015E000FFF774FB2046FFF727FB2046FFF757FC69
:1015F00004F1440000F011FA2046FFF73DFC10BD55
:101600002DE9F04188B004465F496068884202D104
:101610004FF0040812E05D496068884202D14FF043
:1016200008080BE05A496068884202D14FF0100860
:1016300004E04FF0FF3008B0BDE8F0815549A069E3
:10164000884202D1544FC51417E0A069B0F1804F11
:1016500002D1524F012510E05149A069884202D1C0
:101660004E4F022509E04F49A069884202D14B4FF5
:10167000042502E04FF0FF30DDE7A08B08B94A4EA9
:1016800011E0A08B042801D1484E0CE0A08B082863
:1016900001D1474E07E0A08B0C2801D1454E02E056
:1016A0004FF0FF30C7E70121404600F0A7F807A838
:1016B000FFF7E7F92089ADF81C0018208DF81F000E
:1016C00003208DF81E0007A96068FFF7F9F80121D3
:1016D0002846B847206838B10121084600F08EF846
:1016E00001212068FFF778F904A800F02FFF3249A4
:1016F00020690968B1FBF0F0401E80B2ADF810001F
:10170000D4E90310B0FBF1F0401E80B2ADF8140034
:101710000020ADF8120004A9A06900F0C5FE6846DB
:1017200000F082FE6020ADF800000120ADF802005C
:101730006946A069B0470121A06900F0DDFCA08BDB
:1017400020B9A18AA06900F079FE1AE0A08B0428D4
:1017500004D1A18AA06900F073FE12E0A08B0828D2
:1017600004D1A18AA06900F06DFE0AE0A08B0C28CC
:1017700004D1A18AA06900F067FE02E04FF0FF30BB
:1017800059E7002057E7000000080140000C014025
:1017900000100140002C0140FD170008DD17000873
:1017A0000004004000080040D12100086922000820
:1017B0000D230008AD2300081800002029B1064AB7
:1017C00052690243044B5A6104E0034A526982435E
:1017D000014B5A61704700000010024029B1064ACF
:1017E000D2690243044BDA6104E0034AD2698243BE
:1017F000014BDA61704700000010024029B1064A2F
:1018000092690243044B9A6104E0034A926982435D
:10181000014B9A6170470000001002402DE9F04131
:1018200006460F4614461D46304600F0B8F83946C5
:10183000304600F061F8012800D01FE06420FEF778
:1018400051FE2146304600F057F8012800D015E03F
:101850006420FEF747FE2946304600F04DF8012887
:1018600000D00BE06420FEF73DFE304600F0BAF8F1
:101870006420FEF737FE0120BDE8F081304600F01D
:10188000B1F86420FEF72EFE0020F5E738B50446D7
:1018900001212068FFF7B2FF208961890843ADF874
:1018A000000010208DF8030001208DF80200694629
:1018B0006068FFF705F838BD38B504466089ADF8B3
:1018C000000004208DF8030003208DF80200694613
:1018D0006068FEF7F5FF38BD38B504466089ADF89D
:1018E000000010208DF8030001208DF802006946E9
:1018F0006068FEF7E5FF38BD2DE9F04104460F466C
:10190000002523E007FA05F000F0800020B161898E
:101910006068FFF7B4F803E061896068FFF7ADF82D
:101920004FF4FA70FEF7DEFD21896068FFF7A7F833
:101930004FF4FA70FEF7D6FD21896068FFF79DF835
:101940004FF4FA70FEF7CEFD681CC5B2082DD9DB46
:101950006420FEF7C7FD2046FFF7AEFF4FF4FA7094
:10196000FEF7C0FD21896068FFF789F86420FEF763
:10197000B9FD61896068FFF777F808B1002600E0DB
:10198000012621896068FFF778F84FF4FA70FEF7B6
:10199000A9FD2046FFF7A0FF3046BDE8F08110B555
:1019A000044661896068FFF76AF84FF4FA70FEF741
:1019B00099FD21896068FFF762F84FF4FA70FEF72D
:1019C00091FD61896068FFF758F84FF4FA70FEF7EF
:1019D00089FD21896068FFF750F84FF4FA70FEF72F
:1019E00081FD10BD10B5044661896068FFF745F8B8
:1019F0004FF4FA70FEF776FD21896068FFF73FF833
:101A00004FF4FA70FEF76EFD61896068FFF737F8F2
:101A10004FF4FA70FEF766FD10BD10B5044620467F
:101A2000FFF734FF10BD21B1028842F0400202806E
:101A300004E002884FF6BF731A40028070470288A4
:101A40004FF2FF731A40028002880A4302807047F7
:101A50000246002013890B400BB1012000E000205A
:101A600070470146888970478181704710B5002210
:101A7000028802F441520B884C8823438C8823430C
:101A8000CC8823430C8923434C8923438C892343EB
:101A9000CC8923431A430280838B4FF2FF74234087
:101AA00083830B8A038210BD0021018041808180E5
:101AB000C180018141818181C181072101827047FB
:101AC00010B540217F48FEF7DAFF0120FEF7F8FC51
:101AD00040217C48FEF7D1FF0120FEF7F1FC4021B8
:101AE0007848FEF7CCFF9620FEF7EAFC0120FEF7CF
:101AF000F3FF9620FEF7E4FC1120FEF7EDFF9620A1
:101B0000FEF7DEFCB120FEF7E7FF0220FEF7C6FF7E
:101B10003520FEF7C3FF3620FEF7C0FFB220FEF7E8
:101B2000DBFF0220FEF7BAFF3520FEF7B7FF3620B5
:101B3000FEF7B4FFB320FEF7CFFF0220FEF7AEFFA3
:101B40003520FEF7ABFF3620FEF7A8FF0220FEF798
:101B5000A5FF3520FEF7A2FF3620FEF79FFFB42039
:101B6000FEF7BAFF0320FEF799FFC020FEF7B4FF8F
:101B7000A220FEF793FF0220FEF790FF8420FEF7DD
:101B80008DFFC120FEF7A8FFC520FEF787FFC2200A
:101B9000FEF7A2FF0D20FEF781FF0020FEF77EFF7B
:101BA000C320FEF799FF8D20FEF778FF2A20FEF76D
:101BB00075FFC420FEF790FF8D20FEF76FFFEE202B
:101BC000FEF76CFFC520FEF787FF0A20FEF766FFD1
:101BD0003620FEF781FFC820FEF760FFE020FEF709
:101BE0007BFF1220FEF75AFF1C20FEF757FF102044
:101BF000FEF754FF1820FEF751FF3320FEF74EFF8B
:101C00002C20FEF74BFF2520FEF748FF2820FEF78B
:101C100045FF2820FEF742FF2720FEF73FFF2F2039
:101C2000FEF73CFF3C20FEF739FF0020FEF736FFB1
:101C30000320FEF733FF0320FEF730FF1020FEF7EE
:101C40002DFFE120FEF748FF1220FEF727FF1C20A2
:101C5000FEF724FF1020FEF721FF1820FEF71EFFDD
:101C60002D20FEF71BFF2820FEF718FF2320FEF78C
:101C700015FF2820FEF712FF2820FEF70FFF262071
:101C8000FEF70CFF2F20FEF709FF3B20FEF706FFB3
:101C90000020FEF703FF0320FEF700FF0320FEF7FE
:101CA000FDFE1020FEF7FAFE3A20FEF715FF052094
:101CB000FEF7F4FE2920FEF70FFF9620FEF700FC4A
:101CC00010BD0000000C014010B504462CB10122EB
:101CD00051020548FEF7DDFE05E000224FF40071D9
:101CE0000148FEF7D6FE10BD000C014010B500F013
:101CF0009FFCFFF7E5FE10BD38B504460D464FF4D6
:101D000080710A48FEF7B9FE80210848FEF7B7FE49
:101D100002202B46224600210090054800F054FE88
:101D20004FF480710148FEF7AAFE38BD000C014057
:101D3000003800402DE9F04107460C4615461E4686
:101D40002A20FEF7C9FE2046FEF7E4FE3046FEF7E5
:101D5000E1FE2B20FEF7C0FE3846FEF7DBFE2846EC
:101D6000FEF7D8FE2C20FEF7B7FEBDE8F08110B5D7
:101D700000F002F810BD00000CB5002001900090AA
:101D80003348006840F480303149086000BF304873
:101D9000006800F4003000900198401C0190009809
:101DA00018B90198B0F5A06FF1D12948006800F486
:101DB000003010B10120009001E000200090009858
:101DC000012843D12348006840F0100021490860F1
:101DD0000846006820F0030008600846006840F0EC
:101DE000020008601A48406819494860084640687F
:101DF00048600846406840F4806048600846406893
:101E000020F47C1048600846406840F4E8104860C0
:101E10000846006840F08070086000BF0C48006809
:101E200000F000700028F9D00948406820F0030055
:101E3000074948600846406840F00200486000BF1B
:101E40000348406800F00C000828F9D10CBD0000E0
:101E5000001002400020024010B51348006840F016
:101E600001001149086008464068104908400E49C1
:101E70004860084600680E4908400B49086008465B
:101E8000006820F4802008600846406820F4FE00C6
:101E900048604FF41F008860FFF769FF4FF0006053
:101EA0000449086010BD0000001002400000FFF867
:101EB000FFFFF6FE08ED00E0F0B50C4615460022E7
:101EC0000021068C4FF6FE773E400684028B018C83
:101ED0004FF60C7632407E1C06EA03162E43324340
:101EE000104EB0420ED0104EB0420BD0B0F1804F29
:101EF00008D00E4EB04205D00D4EB04202D00D4E6D
:101F0000B04206D14FF6FD76314044F00106314330
:101F100005E04FF6F576314044F001063143028387
:101F20000184F0BD002C0140003401400004004059
:101F300000080040000C0040F0B50C461546002299
:101F400000210026078C4FF6EF7C07EA0C07078478
:101F5000028B018C4FF6FF7707EA041640F6FF4725
:101F60003A404FF6FF7707EA03373A434FF6FF77D9
:101F700007EA05273A43114FB8420ED0104FB84236
:101F80000BD0B0F1804F08D00E4FB84205D00E4FA5
:101F9000B84202D00D4FB84206D14FF6DF77394034
:101FA00046F01007394305E04FF65F77394044F0BB
:101FB0001007394302830184F0BD0000002C01406A
:101FC000003401400004004000080040000C0040C4
:101FD000F0B50C461546002200210026078C4FF66E
:101FE000FF6C07EA0C070784828B018C4FF6FF77A2
:101FF00007EA04264FF60C773A404FF6FF7707EAD8
:1020000003172F433A43114FB8420ED0104FB84236
:102010000BD0B0F1804F08D00E4FB84205D00E4F14
:10202000B84202D00D4FB84206D14FF6FF573940A3
:1020300046F48077394305E04FF2FF57394044F4C6
:102040008077394382830184F0BD0000002C014079
:10205000003401400004004000080040000C004033
:10206000F0B50C461546002200210026078C4EF6DE
:10207000FF7C07EA0C070784828B018C4FF6FF7701
:1020800007EA043640F6FF473A404FF6FF7707EA83
:1020900005273A434FF6FF7707EA03373A43114FD4
:1020A000B8420ED0104FB8420BD0B0F1804F08D0DC
:1020B0000E4FB84205D00E4FB84202D00D4FB84275
:1020C00006D14DF6FF77394046F48057394305E095
:1020D00047F6FF57394044F48057394382830184DF
:1020E000F0BD0000002C014000340140000400401D
:1020F00000080040000C004021B1028842F00102BB
:10210000028004E002884FF6FE731A400280704796
:102110001AB183890B43838102E083898B438381D6
:102120007047000070B505460C46244885420ED025
:10213000234885420BD0B5F1804F08D02148854215
:1021400005D02148854202D02048854200D100E0D8
:1021500000BF208850B92389A28861882846FFF7EC
:10216000ABFEE188284600F072F925E020880428BB
:102170000AD12389A28861882846FFF7DDFEE1881D
:10218000284600F06DF917E0208808280AD1238935
:10219000A28861882846FFF71BFFE188284600F0E7
:1021A0006CF909E02389A28861882846FFF758FF67
:1021B000E188284600F06AF970BD0000002C01405B
:1021C000003401400004004000080040000C0040C2
:1021D00070B5002400220023058C4FF6FE763540B2
:1021E0000584028C8388048B4FF68F752C40B51EB6
:1021F0002C400D882C43751E2A400D892A434D889A
:102200002A43144DA8420BD0134DA84208D0134DB9
:10221000A84205D0124DA84202D0124DA84213D1B7
:102220004FF6F7752A404D892A434FF6FB752A4031
:102230008D882A434FF6FF652B404FF6FF552B4004
:102240008D892B43CD892B4383800483CD8885865C
:10225000028470BD002C0140003401400040014068
:10226000004401400048014070B5002400220023D2
:10227000058C4FF6EF7635400584028C8388048BFD
:1022800048F6FF752C404FF6FF452C400D884FF661
:10229000FF7606EA05252C434FF6DF752A400D89A7
:1022A00006EA05152A434D8806EA05152A43154D09
:1022B000A84202D0144DA8421DD14FF67F752A4086
:1022C0004D894FF6FF7606EA05152A434FF6BF758E
:1022D0002A408D8806EA05152A434FF6FF352B4024
:1022E0004FF2FF752B408D8906EA85052B43CD897A
:1022F00006EA85052B4383800483CD880587028405
:1023000070BD0000002C01400034014070B5002475
:1023100000220023058C4FF6FF6635400584028CB1
:102320008388848B4FF68F752C404FF6FC752C40BC
:102330000D882C434FF6FF552A400D894FF6FF7646
:1023400006EA05252A434D8806EA05252A43154D48
:10235000A84202D0144DA8421DD14FF2FF752A4069
:102360004D894FF6FF7606EA05252A434FF6FF35DD
:102370002A408D8806EA05252A434EF6FF752B4034
:102380004DF6FF752B408D8906EA05152B43CD8947
:1023900006EA05152B4383808483CD8885870284D4
:1023A00070BD0000002C01400034014070B50022D7
:1023B00000230024058C4EF6FF7635400584038CFF
:1023C0008488828B48F6FF752A404FF6FF452A40E5
:1023D0000D884FF6FF7606EA05252A434DF6FF7570
:1023E0002B400D8906EA05352B434D8806EA053555
:1023F0002B430B4DA84202D00A4DA84208D14BF600
:10240000FF752C408D894FF6FF7606EA85152C4323
:1024100084808283CD88A0F84050038470BD000082
:10242000002C014000340140002101804180818066
:10243000C180018141818181C1817047818670475E
:102440000187704781877047A0F840107047028B62
:102450004FF6F3731A400283028B0A4302837047DC
:10246000028B4FF2FF331A400283028B4FF6FF7349
:1024700003EA01231A4302837047828B4FF6F373FA
:102480001A408283828B0A4382837047828B4FF289
:10249000FF331A408283828B4FF6FF7303EA0123D6
:1024A0001A43828370470000002202881D4B984225
:1024B0000ED01D4B98420BD0B0F1804F08D01B4B73
:1024C000984205D01A4B984202D01A4B984204D138
:1024D0004FF68F731A404B881A43174B984207D018
:1024E000164B984204D04FF6FF431A40CB881A434C
:1024F00002808B8883850B8803850A4B98420BD01A
:10250000094B984208D00E4B984205D00D4B98428B
:1025100002D00D4B984201D10B7A038601238382AE
:1025200070470000002C01400034014000040040CE
:1025300000080040000C0040001000400014004063
:102540000040014000440140004801404FF6FF7147
:10255000818000210180C1804180017270470000AC
:1025600010B504469CB900210A48FFF7C5FD0022BA
:1025700002210948FDF77CFF00224FF40061054865
:10258000FFF7C6FD00210448FDF7AAFE00E000BFEA
:1025900000BF10BD000400401C0002402DE9F041C6
:1025A00004460D4604EB440000EBC4001B4901EB5C
:1025B00080061B4800EB840704EB8400194901EBFB
:1025C000402005F0070101EB810100EB81107060F4
:1025D00004BB4FF4C060FEF725FB3846FEF7EAFA6D
:1025E0001148FDF789FE31460F48FDF74AFF0121EA
:1025F0000D48FDF775FE0122D1020C48FFF788FD5A
:10260000012202210848FDF733FF01210748FFF7A7
:1026100073FD00E000BF00BFBDE8F081840A002028
:10262000000000202C0000201C000240000400409C
:1026300008B501210C20FFF7E1F801218803FFF71D
:10264000CDF86846FEF71DFA02208DF80200C02082
:10265000ADF8000010208DF8030069460B48FEF726
:102660002FF94FF48070ADF8000069460748FEF777
:1026700027F94FF40070ADF8000069460348FEF7F3
:102680001FF9034800F0FEF808BD0000000C0140EF
:10269000003800400EB5FFF729FB0120FFF714FBBF
:1026A0004FF47840FEF754FA4FF49670FDF708FFA8
:1026B00000254EE005EB450000EBC500674901EB46
:1026C000C00415B1012D3CD13AE0654820604014AA
:1026D000A0806348A0604FF40040A0816148206161
:1026E0000220A0825E48A0614FF48040A0835D4834
:1026F00020620120A0845C48A0625A49E162C914AA
:102700002186C904A1630C21A187584961635848F7
:102710002064042060645649A164C1014C20015327
:1027200049104E2001535020A4F850003821522067
:1027300001539F20A4F854007F215620015301E04B
:1027400000E004E000BF2046FEF747FF00BF681C22
:10275000C5B2012DAEDB002545E005EB450000EBE1
:10276000C5003E4901EBC004A18A08222069FDF79B
:102770008BFFA18B0C22A069FDF786FF05EB4500BE
:1027800000EBC5003B4901EB8006206C083030604F
:102790000020B0604FF4A070F06000203061802015
:1027A00070610020B061F061202030624FF4405031
:1027B00070620020B062304800EB8508002088F885
:1027C000010088F80200012088F803003DB90C20C0
:1027D00088F8000001210846FEF7F0FF00E000BF86
:1027E00000BF681CC5B2012DB7DB6846FFF7AEFE1F
:1027F0004FF48070ADF804000020ADF80000ADF893
:102800000600ADF80200002524E005EB85001B4919
:1028100001EB4007002078800120B8800020F8807C
:10282000388115B1012D10D10EE001210220FEF7F3
:10283000D5FF69461248FFF737FE08203880394631
:102840000F48FFF76FFC01E000E001E000BF00BFB0
:10285000681CC5B2012DD8DB00BFFEE72C0A0020A2
:1028600000100140000C01400003180000093D0069
:1028700000080140840A002000000020B00A002067
:102880000004004010B5044601220221204600F059
:1028900001F810BD70B586B006460C461546684670
:1028A000FEF7EFF801A8FFF7FFF82848864220D18D
:1028B00001210014FEF792FF01210920FEF79EFF7F
:1028C0004FF42040ADF8000003208DF802001820DE
:1028D0008DF8030069461E48FDF7F2FF3014ADF88D
:1028E000000048208DF8030069461948FDF7E8FF0D
:1028F00001E006B070BD00213046FFF794F80020DB
:10290000ADF804004FF48270ADF806000020ADF879
:102910000800ADF80A40ADF80C504FF40070ADF867
:102920000E000C480088ADF810000020ADF8120031
:102930000720ADF8140001A93046FFF797F80121F0
:102940003046FFF770F800BFD3E7000000380040C2
:10295000000C0140442A00082DE9F04706460C46C9
:1029600015461F46DDF82090308820F038001549C4
:1029700031F81910084330804FF000081DE02DB1E8
:1029800015F8011B3046FFF76FF803E0FF213046D2
:10299000FFF76AF800BF01213046FFF759F8002819
:1029A000F9D02CB13046FFF75CF804F8010B02E0D7
:1029B0003046FFF756F808F10108B845DFDB012083
:1029C000BDE8F087442A00082DE9F04706460C468A
:1029D00015469846DDF82090308820F038001849D8
:1029E00031F81910084330804FF400613046FFF78A
:1029F00026F800271AE015B135F8020B00E0FF2099
:102A000001463046FFF730F800BF01213046FFF79E
:102A10001FF80028F9D02CB13046FFF722F824F82F
:102A2000020B02E03046FFF71CF87F1C4745E2DB53
:102A300000213046FFF703F83846BDE8F087000074
:102A4000442A000828001000000000006C2A00083A
:102A5000000000202C00000028010008982A00082F
:102A60002C00002044120000440100080000000077
:102A70000000000000000000000000000000000056
:102A80000000000000A24A04000000000000000056
:082A9000010203040607080916
:040000050800018D61
:00000001FF
